:100646004D51497364700076312F002F7468696EBE
:1006560067732F002F646174612F005A6869796F80
:100666006E67205869616F002B2B2B0041542B526B
:1006760053540041542B43495053544152543D2244
:10068600544350222C226D7174742E6D79646576F4
:10069600696365732E636F6D222C313838330041E0
:1006A600542B4349504D4F44453D310041542B4353
:1006B600495053454E440041542B43574D4F4445F2
:1006C6003D310D0A0010820100064D5149736470D8
:1006D60003C2003C002464633737633232302D3462
:1006E6006438332D313165372D393064632D6364B9
:1006F6003633396361393039613800243737323659
:10070600316262302D346432652D313165372D61A9
:100716003163382D303361333130623037626232C3
:10072600002836656364633734313939643462349A
:100736003364376330316334633634303136326292
:1007460037316162353061373763825E00010059A7
:1007560076312F37373236316262302D3464326566
:100766002D313165372D613163382D3033613331A9
:10077600306230376262322F7468696E67732F6435
:10078600633737633232302D346438332D31316577
:10079600372D393064632D636436333963613930FC
:1007A6003961382F636D642F3200305D005A76311F
:1007B6002F37373236316262302D346432652D314F
:1007C6003165372D613163382D3033613331306215
:1007D60030376262322F7468696E67732F646337CD
:1007E60037633232302D346438332D313165372D4D
:1007F600393064632D636436333963613930396166
:10080600382F646174612F64633737633232302D59
:10081600346438332D313165372D393064632D63B7
:1008260064363339636139303961380037373236E7
:10083600316262302D346432652D313165372D6178
:100846003163382D30336133313062303762623292
:10085600003665636463373431393964346234335E
:10086600643763303163346336343031363262375D
:0E0876003161623530613737630000000000E9
:0614FB0001700101710007
:10139400E4F574F574E5749007B093FF121529050C
:1013A40074E574C3945D40ED7F331215297F3012C8
:0213B4001529F9
:0113B6002214
:1013B700E4F575F575E5759007B093FF12152905E6
:1013C70075E575C3945D40ED7F331215297F3112A2
:0213D7001529D6
:0113D90022F1
:1013DA00E4F576F576E5769007B093FF12152905C0
:1013EA0076E576C3945D40ED7F361215297F30127B
:0213FA001529B3
:0113FC0022CE
:1013FD00E4F577F577E5779007B093FF121529059A
:10140D0077E577C3945D40ED7F361215297F351250
:02141D0015298F
:01141F0022AA
:0412C8008F588D5955
:1012CC00E4F55AF55AE55A9007B093FF1215290523
:1012DC005AE55AC3945D40EDE5582430FF121529A8
:0812EC00E5592430FF12152919
:0112F40022D7
:100D9300E4F558F5597F1012152975580075590C4B
:100DA3007BFF7A08790D1214D2EF2402FFE43EFE92
:100DB300EF2559F559EE3558F5587BFF7A08793206
:100DC3001214D2EF2402FFE43EFEEF2559F559EE4B
:100DD3003558F5587BFF7A0879571214D2EF24025D
:0E0DE300FFE43EFEEF2559F559EE3558F55860
:100DF100AE58AF597C007D80120BC28D5AAE58AFF0
:100E0100597C007D80120BC28E588F59D3E55994BD
:100E110000E558648094804003435A80AF5A12150C
:010E210029A7
:100E2200D3E5599400E5586480948050C27F067ED1
:100E32000012136F7BFF7A0679461211F77F0312B5
:100E420015297FC21215297F3C7E0012136F7BFF8A
:100E52007A08790D1214D212136F7BFF7A08790D7A
:100E62001211F77BFF7A0879321214D212136F7BB8
:100E7200FF7A0879321211F77BFF7A087957121438
:0D0E8200D212136F7BFF7A0879571211F717
:010E8F002240
:040E90008F588D5991
:100E9400E4F55AF55B7F32121529755A00755B1714
:100EA4007BFF7A08790D1214D2EF255BF55BEE35E2
:100EB4005AF55A7BFF7A0879321214D2EF255BF582
:060EC4005BEE355AF55A01
:100ECA00AE5AAF5B7C007D80120BC28D5CAE5AAF0E
:100EDA005B7C007D80120BC28E5A8F5BD3E55B94DC
:100EEA0000E55A648094804003435C80AF5C12152D
:010EFA0029CE
:100EFB00D3E55B9400E55A6480948050C2E4FF1202
:100F0B0015297F5A1215297BFF7A06794D1211F795
:100F1B007BFF7A0879321211F77BFF7A067951122F
:100F2B0011F77BFF7A08790D1211F77BFF7A06799F
:100F3B005A1211F7E5582430FF121529E4FF121548
:0E0F4B00297F01121529E5592430FF121529BE
:010F59002275
:10088400E4F552F5537A00795478547C00FD7BFFEB
:100894007A087980FE7F02120B4D7A0079567856D9
:1008A4007C007D007BFF7A0879827E007F02120B38
:1008B4004D75B5FF75B3FF75B60F7FE87E0312144F
:1008C400E7D2B51214BD121537120FE61212987B37
:1008D400FF7A067961120C661214747BFF7A06792A
:1008E4006E1211F77F887E131214E77BFF7A067964
:1008F400721211F77F0D1215297F0A121529E4FFD0
:100904001215297F107E271214E71211377F987E63
:100914003A1214E71211377BFF7A0679791211F72C
:100924007F0D1215297F0A121529E4FF1215297F5C
:10093400107E271214E71211377BFF7A0679A5126D
:1009440011F77F0D1215297F0A121529E4FF1215DC
:10095400297F107E271214E71211377BFF7A06795C
:10096400B21211F77F0D1215297F0A121529E4FF1F
:100974001215297F107E271214E7121137120D93D6
:100984007F107E271214E7E54E640460030208DF3B
:100994001210647F107E271214E7E4F552F55374A5
:1009A400502553F58274073552F583E493FF1215ED
:1009B400290553E55370020552C39460E5526480DF
:1009C400948040DB7F107E271214E71210647F109E
:1009D4007E271214E7C2B7E4F570FD7F021212C835
:1009E400E4FD7F031212C8E54ED3941E403574070C
:1009F400254EF8E6F508B43014C2B7E4F570FD7F6F
:100A0400021212C8E4FD7F031212C88013D2B77514
:100A140070017D017F021212C87D017F031212C88A
:100A2400E4F54E7D017F01120E907F327E00121498
:100A3400E7E54EB40405E4F57180020571E57164DF
:100A44000A70030208DFE4F54E7FB67E031214E752
:100A5400E4FD7F011212C8E570B401097D017F0332
:100A64001212C88007E4FD7F031212C87FE87E03D8
:080A74001214E70209EB80FEF9
:010A7C002257
:04153C0075B60F224F
:10142000E4FFFEE4FDFC0DBD00010CED64134C7007
:0C143000F50FBF00010EEF640A4E70E7DC
:01143C00228D
:1014E700AB07AA06EB1BAE0270011A4E6005121479
:0414F7002080F1223E
:10145900E5B120E6037F0322E5B120E5037F0222FF
:0B146900E5B120E4037F01227F002298
:1012F50075B1FE7FF47E011214E775B1FD7FF47EB2
:10130500011214E775B1FB7FF47E011214E775B184
:09131500F77FF47E011214E722B7
:10131E0075B1F77FF47E011214E775B1FB7FF47E91
:10132E00011214E775B1FD7FF47E011214E775B159
:09133E00FE7FF47E011214E72287
:1014BD0075B1F07FF47E011214E775B1FF7FF47EF4
:0514CD00011214E722EA
:10118500790112153C121459EF14600E14600714FE
:10119500700A79038006790280027901E924FE60EC
:1011A5000C14600E240270DD1212F580D81214BDE5
:0911B50080D312131E80CE80CC01
:0111BE00220E
:05153700D290D29122C8
:06153100C29000C29122ED
:09150500D290D291C290C2912251
:09150E00C291C290D291D2902248
:09151700C290D291C291D290223F
:09152000D290D291C291D2902226
:10134700E4FEEF20E704C2908002D290D291000021
:1013570000C291EF25E0FF0EBE08E7D290D29100C0
:07136700A290E433FFC291E4
:01136E00225C
:10143D00E4FFFED291309003430701EEC3940750B1
:0B144D0004EF25E0FFC2910EBE08E88E
:011458002271
:03150100014E0098
:1014740090E600740AF090E6087401F053877F75D3
:091484009850D2ACD28CD2AF22F8
:0611F7008B5D8A5E895F3A
:1011FD00E4F560AB5DAA5EA95F1214D2C3E5609FF2
:10120D00EE6480F87480985017AB5DAA5EA95F8577
:10121D006082758300120B73FF121529056080D350
:01122D00229E
:06122E008B698A6A896BDE
:10123400E4F56CAB69AA6AA96B1214D2C3E56C9F7E
:10124400EE6480F87480985017AB69AA6AA96B851C
:101254006C82758300120B73FF121529056C80D301
:011264002267
:10106400121298E4FF12148D7F1012148D7F401217
:10107400148D7FB012148DE4F55AE55AC3954E5081
:10108400477408255AF8E6FFC4540FF558EF540F77
:10109400F559E558C3940A500AE5582430FF121153
:1010A400BF8008E5582457FF1211BFE559C3940ABD
:1010B400500AE5592430FF1211BF8008E55924571E
:0B10C400FF1211BF055A80B2E4F54E88
:0110CF0022FE
:10113700121298E4FF12148D7F1012148D7F401243
:10114700148D7FB012148DE4F55AE55AC3954E50AD
:10115700297408255AF8E6FF640D6009EF640A60F0
:1011670004EFB40B077F201211BF800A7408255AB9
:0D117700F8E6FF1211BF055A80D0E4F54ED6
:011184002248
:10136F00AB07AA067C017D00120BC28F993099FD45
:10137F00C299AE02AF037C017D00120BC28D993072
:05138F0099FDC2992246
:081529008F993099FDC299224F
:0300230002126561
:09126500C0E0C0D075D000C0004B
:10126E00309820C298E54EC3944650147408254E0B
:10127E00F8A699054E7407254EF8E6B40A058003C4
:03128E00754E009A
:07129100D000D0D0D0E03204
:1000260000000000000000000000000000000000CA
:10003600000000000000005F005F000000000000FC
:100046000000000000030007000000070003000096
:10005600000000100074001C0077001C001700044C
:1000660000000024002E002A007F002A003A00101B
:100076000000004C006A0076001A006A0056003341
:1000860000000030007A004F005D0037007A00481B
:10009600000000000004000700030000000000004C
:1000A600000000000000001C003E0063004100004C
:1000B6000000000000410063003E001C000000003C
:1000C60000000008002A003E001C003E002A00082E
:1000D600000000080008003E003E0008000800007E
:1000E600000000000000006000600000000000004A
:1000F60000000008000800080008000800080000CA
:100106000000000000000060006000000000000029
:100116000000006000300018000C0006000300011B
:100126000000001C003E00610043003E001C000071
:10013600000000000044007F007F00400000000037
:1001460000000046006700710059004F006600007D
:100156000000002200630049004D007F00320000CD
:1001660000000018001C0052007F007F00500000B5
:100176000000002F006F00450045007D003900009B
:100186000000003C007E004B004900790030000072
:100196000000000700430071007D000F000300000F
:1001A60000000036007F004D0059007F0036000039
:1001B60000000006004F00490069003F001E0000D5
:1001C600000000000000006600660000000000005D
:1001D600000000000000006600660000000000004D
:1001E600000000000008001C00360063004100000B
:1001F6000000001400140014001400140014000081
:1002060000000000004100630036001C00080000EA
:1002160000000002000700510059000F0006000010
:100226000000003E0041005D0055005D0051001ECB
:10023600000000400070001D0017001F00780060DD
:1002460000000041007F007F0049004F007E003023
:100256000000001C003E00630041004100420027F0
:1002660000000041007F007F00410063003E001C4B
:1002760000000041007F007F0049005D00410063EF
:1002860000000041007F007F0049001D00010003BF
:100296000000001C003E0063004100510072007720
:1002A6000000007F007F00080008007F007F00003C
:1002B600000000000041007F007F004100000000B8
:1002C60000000030007000410041007F003F000147
:1002D6000000007F007F0008001C007700630041DB
:1002E60000000041007F007F004100400060007078
:1002F6000000007F007E000C0018000C007E007FCE
:100306000000007F007E000C00180030007F007F98
:100316000000001C003E006300410063003E001C1C
:1003260000000041007F007F00490009000F000621
:100336000000001C003E006300510063003E001CEC
:100346000000007F007F00090019007F0066004062
:1003560000000066006F004D0059007B003300006E
:10036600000000030041007F007F00410003000001
:100376000000003F007F004000400040007F003F3B
:1003860000000003000F003D0070001D0007000183
:100396000000000F007F0030001C0030007F000FBF
:1003A600000000630077001C001C0077006300005B
:1003B600000100030047007C0078004700030001AD
:1003C6000000006700730059004D006700730000CD
:1003D600000000000000007F007F00410041000097
:1003E6000000000100030006000C00180030006049
:1003F6000000000000410041007F007F0000000077
:1004060000000000000400060003000600040000CF
:1004160000000000000000000000000000000000D6
:1004260000000000000100030006000400000000B8
:1004360000000068006C00540054003C0078004046
:1004460000000041007F003F006C0044007C003843
:1004560000000038007C00440044006C002C0000C2
:1004660000000038007C00440049003F007F004047
:1004760000000038007C00540054005C0058000066
:10048600000000000048007E007F0049000B0002CB
:1004960000000048007C00340034002C0068004452
:1004A60000000041007F007F00080004007C007807
:1004B600000000000044007D007D004000000000B8
:1004C6000000006000600004007D007D0000000068
:1004D60000000041007F007F00100078006C00449F
:1004E600000000000041007F007F00400000000087
:1004F6000000007C007C000C0078000C007C00787A
:1005060000000044007C007C00080004007C0078A9
:1005160000000038007C00440044007C00380000E5
:1005260000000004007C007800240024003C001831
:1005360000000018003C002400240078007C000025
:1005460000000044007C0078004C0004001C0018E9
:1005560000000048005C005C007400740024000089
:10056600000000000004003E007F0044002400005C
:100576000000003C007C00400040003C007C004045
:1005860000000004001C003C00600030001C000459
:100596000000001C007C0030001C0030007C001CA9
:1005A60000000044006C003C00100078006C004421
:1005B60000000044004C001C00700064001C000C8D
:1005C6000000004C00640074005C004C00640000F5
:1005D600000000080008003E0077004100410000CE
:1005E600000000000000007F007F00000000000007
:1005F6000000004100410077003E000800080000AE
:1006060000000002000100010003000200020001D8
:10061600000000600078004E0047005E0078006031
:100626000000001C003E002300410041004200275C
:100636000000003D007D00400041003D007C004080
:10148D008F5F1215317F78121347E4FF121347AFA8
:08149D005F12134712150E2225
:1014A5008F5F1215317F781213477F40121347AFB4
:0814B5005F12134712150E220D
:100FE6007FAE12148D7FD512148D7F8012148D7FE3
:100FF600A812148D7F3F12148D7FD312148DE4FF37
:1010060012148D7F4012148D7F8D12148D7F141251
:10101600148D7F2012148DE4FF12148D7FA11214FB
:101026008D7FC812148D7FDA12148D7F1212148DE3
:101036007F8112148D7FCF12148D7FD912148D7F6C
:10104600F112148D7FDB12148D7F4012148D7FA454
:0E10560012148D7FA612148D7FAF12148D22FE
:10129800E4FF12148D7F1012148D7F4012148D7F7D
:1012A800B012148DE4F55BF55CE4FF1214A5055C3F
:0F12B800E55C7002055BC3E55B6480948440EAEB
:0112C7002204
:0211BF008F5B44
:1011C100E4F55CE55B75F008A47C00255CFFEC357B
:1011D100F0FEEF25E0FFEE33FE74262FF58274FE5C
:1011E1003EF583E493740193FF1214A5055CE55C5D
:0511F100C3940840CE8C
:0111F60022D6
:10000300E4FF12148D7F1012148D7F4012148DE4BF
:0F001300FFFE0FBF00010EE4B507F7EEB404F3D4
:0100220022BB
:060C66008B588A59895ADF
:100C6C00E4F55BF55CF55DF55EFF12148D7F1012FB
:100C7C00148D7F4012148D7FB012148DE4F55BF54A
:100C8C005CAB58AA59A95A1214D2C3E55C9FEE6406
:100C9C0080F8E55B6480984003020D53AB58AA5969
:100CAC00A95A855C82855B83120B73FF640D600906
:100CBC00EF640A6004EFB40B36E4F55DF55EE55EB7
:100CCC0025E0FFE55D33FE74262FF58274003EF5BA
:100CDC0083E493740193FF1214A5055EE55E700224
:100CEC00055DC39408E55D6480948040D1804DE43B
:100CFC00F55DF55EAB58AA59A95A855C82855B8374
:100D0C00120B7375F008A4255EFFE55D35F0FEEF60
:100D1C0025E0FFEE33FE74262FF58274FE3EF5833C
:100D2C00E493740193FF1214A5055EE55E70020551
:100D3C005DC39408E55D6480948040B8055CE55C17
:100D4C007002055B020C8DE4F55BF55CAB58AA599F
:100D5C00A95A1214D2EF7803C333CE33CED8F9FF8D
:100D6C00C3E49FFF74049EFEC3E55C9FEE6480F8B1
:100D7C00E55B648098500FE4FF1214A5055CE55CFC
:060D8C007002055B80C649
:010D9200223E
:0A10D0008B618A6289638C648D6570
:0510DA00E4F566F56776
:1010DF00AE64AF657C007D80120BC28D68AE64AFCD
:1010EF00657C007D80120BC28E648F65D3E565949D
:1010FF0000E564648094804003436880AB61AA621A
:10110F00A9630567E567AE667002056614F5828E02
:06111F0083E568120BA03D
:10112500D3E5659400E5646480948050ADAE66AF08
:011135006752
:011136002296
:011540002288
:03000000020F5A92
:0C0F5A00787FE4F6D8FD758177020FA1C6
:100A7D00E709F608DFFA8046E709F208DFFA803E5B
:100A8D0088828C83E709F0A3DFFA8032E309F60848
:100A9D00DFFA8078E309F208DFFA807088828C83B0
:100AAD00E309F0A3DFFA806489828A83E0A3F60864
:100ABD00DFFA805889828A83E0A3F208DFFA804C3E
:100ACD0080D280FA80C680D4806980F28033801015
:100ADD0080A680EA809A80A880DA80E280CA80337E
:100AED0089828A83ECFAE493A3C8C582C8CCC583F6
:100AFD00CCF0A3C8C582C8CCC583CCDFE9DEE780C6
:100B0D000D89828A83E493A3F608DFF9ECFAA9F044
:100B1D00EDFB2289828A83ECFAE0A3C8C582C8CC9A
:100B2D00C583CCF0A3C8C582C8CCC583CCDFEADEB3
:100B3D00E880DB89828A83E493A3F208DFF980CC15
:100B4D0088F0EF60010E4E60C388F0ED2402B4040E
:100B5D000050B9F582EB2402B4040050AF232345B5
:060B6D008223900ACD7303
:100B7300BB010CE58229F582E5833AF583E0225037
:100B830006E92582F8E622BBFE06E92582F8E22281
:0D0B9300E58229F582E5833AF583E493229B
:100BA000F8BB010DE58229F582E5833AF583E8F08B
:100BB000225006E92582C8F622BBFE05E92582C837
:020BC000F2221F
:100BC200C2D5EC30E709B2D5E4C39DFDE49CFCEE4E
:100BD20030E715B2D5E4C39FFFE49EFE120C11C3A9
:100BE200E49DFDE49CFC8003120C1130D507C3E4A4
:060BF2009FFFE49EFE22BD
:1014D200E4FFFE120BF8600C0FEF70010E09E970C9
:0514E200F20A80EF2278
:100F6600020884E493A3F8E493A34003F68001F215
:100F760008DFF48029E493A3F85407240CC8C3338C
:100F8600C4540F4420C8834004F456800146F6DF5B
:100F9600E4800B01020408102040809014FBE47EDC
:100FA600019360BCA3FF543F30E509541FFEE49350
:100FB600A360010ECF54C025E060A840B8E493A317
:100FC600FAE493A3F8E493A3C8C582C8CAC583CA42
:100FD600F0A3C8C582C8CAC583CADFE9DEE780BEFA
:0115040000E6
:100BF800BB010689828A83E0225002E722BBFE02FB
:090C0800E32289828A83E493222D
:100C1100BC000BBE0029EF8DF084FFADF022E4CCC7
:100C2100F875F008EF2FFFEE33FEEC33FCEE9DEC90
:100C3100984005FCEE9DFE0FD5F0E9E4CEFD22EDD6
:100C4100F8F5F0EE8420D21CFEADF075F008EF2F20
:100C5100FFED33FD4007985006D5F0F222C398FD11
:050C61000FD5F0EA22AE
:00000001FF
