:100646007C2020204D7964657669636573202020BF
:100656007C2020544350204950204D6F6465202053
:100666007C2020204279205A59205869616F202029
:100676007C2020202020323031372D3720202020AA
:10068600002B2B2B007C2020204D79646576696336
:1006960065732020207C2020544350204950204D53
:1006A6006F646520207C202052657365742057692D
:1006B60066692020200041542B525354007C202090
:1006C600204D79646576696365732020207C20203F
:1006D600544350204950204D6F646520207C2043B0
:1006E6006F6E6E6563742053657276657200415451
:1006F6002B43495053544152543D22544350222CCB
:10070600223139322E3136382E322E33222C3530E4
:100716003030007C20436F6E6E6563746564207CA8
:100726000041542B4349504D4F44453D31004154FF
:100736002B43495053454E440057616974696E67AF
:100746002E2E2E004368616E6E656C20313A204F66
:100756004E004368616E6E656C20313A204F464606
:100766000041542B43574D4F44453D310D0A00106F
:10077600820100064D514973647003C2003C002497
:1007860064633737633232302D346438332D313178
:1007960065372D393064632D6364363339636139C7
:1007A60030396138002437373236316262302D34C1
:1007B6006432652D313165372D613163382D303323
:1007C60061333130623037626232002836656364E5
:1007D60063373431393964346234336437633031E2
:1007E60063346336343031363262373161623530E4
:1007F60061373763825E0001005976312F37373211
:1008060036316262302D346432652D313165372DD3
:10081600613163382D303361333130623037626293
:10082600322F7468696E67732F64633737633232A9
:10083600302D346438332D313165372D39306463CA
:100846002D6364363339636139303961382F636D0E
:10085600642F3200305D005A76312F373732363109
:100866006262302D346432652D313165372D613148
:1008760063382D3033613331306230376262322F64
:100886007468696E67732F64633737633232302D4D
:10089600346438332D313165372D393064632D6337
:1008A60064363339636139303961382F6461746174
:0508B6002F000000000E
:06126C0001720101730094
:100AA400E4F552F5537A00795478547C00FD7BFFC9
:100AB4007A0879B7FE7F0212098B7A007956785644
:100AC4007C007D007BFF7A0879B97E007F021209E1
:100AD4008B75B5FF75B3FF75B60F7FE87E031212F1
:100AE40058D2B5C2B712122E1212A8120E1012103A
:100AF400C27BFF7A067946120C577F887E13121246
:100B0400581211E57BFF7A0679871210217F887EBF
:100B140013121258120E101210C27BFF7A06798B30
:100B2400120C577BFF7A0679BC1210217F0D12122A
:100B34009A7F0A12129AE4FF12129A7F107E2712E9
:100B44001258120F617F107E27121258120E1012C3
:100B540010C27BFF7A0679C3120C57E4F54E7BFF73
:100B64007A0679F41210217F0D12129A7F0A12125A
:100B74009AE4FF12129A7F107E27121258E54EB49F
:100B84003805E4F54E80C5120E101210C27BFF7AB0
:100B9400077919120C577F887E131212587BFF7A3B
:100BA4000779271210217F0D12129A7F0A12129AC6
:100BB400E4FF12129A7F887E13121258120F61E416
:100BC400F54E7BFF7A0779341210217F0D12129AA9
:100BD4007F0A12129AE4FF12129A7F107E271212D1
:100BE40058E54E64166006E4F54E020B08E4F54E33
:100BF4007F107E2712125812122E120E101210C2DB
:100C04007BFF7A07793F120C577F887E13121258A4
:100C1400E54E64027037E50864017023E509139218
:100C2400B7120E101210C2E509600B7BFF7A077928
:100C34004A120C5780097BFF7A077958120C57E542
:100C440008700A7F107E27121258020B08E4F54E32
:020C540080B767
:010C5600227B
:0412AD0075B60F22E1
:10119100E4FFFEE4FDFC0DBD00010CED64134C7099
:0C11A100F50FBF00010EEF640A4E70E76E
:0111AD00221F
:10125800AB07AA06EB1BAE0270011A4E600512110D
:041268009180F1225E
:1011CA00E5B120E6037F0322E5B120E5037F022291
:0B11DA00E5B120E4037F01227F00222A
:1010F20075B1FE7FF47E0112125875B1FD7FF47E48
:101102000112125875B1FB7FF47E0112125875B1AB
:09111200F77FF47E01121258224D
:10111B0075B1F77FF47E0112125875B1FB7FF47E27
:10112B000112125875B1FD7FF47E0112125875B180
:09113B00FE7FF47E01121258221D
:10122E0075B1F07FF47E0112125875B1FF7FF47E16
:05123E0001121258220C
:100FAF0079011212AD1211CAEF14600E14600714FA
:100FBF00700A79038006790280027901E924FE60C4
:100FCF000C14600E240270DD1210F280D812122E53
:090FDF0080D312111B80CE80CCDE
:010FE80022E6
:0512A800D290D291225A
:0612A200C29000C291227F
:09127600D290D291C290C29122E3
:09127F00C291C290D291D29022DA
:09128800C290D291C291D29022D1
:09129100D290D291C291D29022B8
:10114400E4FEEF20E704C2908002D290D291000026
:1011540000C291EF25E0FF0EBE08E7D290D29100C5
:07116400A290E433FFC291E9
:01116B002261
:1011AE00E4FFFED291309003430701EEC394075043
:0B11BE0004EF25E0FFC2910EBE08E820
:0111C9002203
:03127200014E002A
:1011E50090E600740AF090E6087401F053877F7565
:0911F5009850D2ACD28CD2AF228A
:061021008B588A59895A20
:10102700E4F55BAB58AA59A95A121243C3E55B9F73
:10103700EE6480F87480985017AB58AA59A95A855E
:101047005B827583001209B1FF12129A055B80D388
:011057002276
:061058008B688A69896AB9
:10105E00E4F56BAB68AA69A96A121243C3E56B9FEC
:10106E00EE6480F87480985017AB68AA69A96A85F7
:10107E006B827583001209B1FF12129A056B80D331
:01108E00223F
:100E8E001210C2E4FF1211FE7F101211FE7F4012EB
:100E9E0011FE7FB01211FEE4F56EE56EC3954E5055
:100EAE00477408256EF8E6FFC4540FF56CEF540F27
:100EBE00F56DE56CC3940A500AE56C2430FF120FF1
:100ECE00E98008E56C2457FF120FE9E56DC3940A1B
:100EDE00500AE56D2430FF120FE98008E56D2457A6
:0B0EEE00FF120FE9056E80B2E4F54E24
:010EF90022D6
:100F61001210C2E4FF1211FE7F101211FE7F401217
:100F710011FE7FB01211FEE4F55AE55AC3954E50A9
:100F8100297408255AF8E6FF640D6009EF640A60C8
:100F910004EFB40B077F20120FE9800A7408255A69
:0D0FA100F8E6FF120FE9055A80D0E4F54E86
:010FAE002220
:10116C00AB07AA067C017D00120A008F993099FD0D
:10117C00C299AE02AF037C017D00120A008D99303A
:05118C0099FDC299224B
:08129A008F993099FDC29922E1
:0300230002108F39
:09108F00C0E0C0D075D000C00023
:10109800309820C298E54EC3944650147408254EE3
:1010A800F8A699054E7407254EF8E6B40A0580039C
:0310B800754E0072
:0710BB00D000D0D0D0E032DC
:1000260000000000000000000000000000000000CA
:10003600000000000000005F005F000000000000FC
:100046000000000000030007000000070003000096
:10005600000000100074001C0077001C001700044C
:1000660000000024002E002A007F002A003A00101B
:100076000000004C006A0076001A006A0056003341
:1000860000000030007A004F005D0037007A00481B
:10009600000000000004000700030000000000004C
:1000A600000000000000001C003E0063004100004C
:1000B6000000000000410063003E001C000000003C
:1000C60000000008002A003E001C003E002A00082E
:1000D600000000080008003E003E0008000800007E
:1000E600000000000000006000600000000000004A
:1000F60000000008000800080008000800080000CA
:100106000000000000000060006000000000000029
:100116000000006000300018000C0006000300011B
:100126000000001C003E00610043003E001C000071
:10013600000000000044007F007F00400000000037
:1001460000000046006700710059004F006600007D
:100156000000002200630049004D007F00320000CD
:1001660000000018001C0052007F007F00500000B5
:100176000000002F006F00450045007D003900009B
:100186000000003C007E004B004900790030000072
:100196000000000700430071007D000F000300000F
:1001A60000000036007F004D0059007F0036000039
:1001B60000000006004F00490069003F001E0000D5
:1001C600000000000000006600660000000000005D
:1001D600000000000000006600660000000000004D
:1001E600000000000008001C00360063004100000B
:1001F6000000001400140014001400140014000081
:1002060000000000004100630036001C00080000EA
:1002160000000002000700510059000F0006000010
:100226000000003E0041005D0055005D0051001ECB
:10023600000000400070001D0017001F00780060DD
:1002460000000041007F007F0049004F007E003023
:100256000000001C003E00630041004100420027F0
:1002660000000041007F007F00410063003E001C4B
:1002760000000041007F007F0049005D00410063EF
:1002860000000041007F007F0049001D00010003BF
:100296000000001C003E0063004100510072007720
:1002A6000000007F007F00080008007F007F00003C
:1002B600000000000041007F007F004100000000B8
:1002C60000000030007000410041007F003F000147
:1002D6000000007F007F0008001C007700630041DB
:1002E60000000041007F007F004100400060007078
:1002F6000000007F007E000C0018000C007E007FCE
:100306000000007F007E000C00180030007F007F98
:100316000000001C003E006300410063003E001C1C
:1003260000000041007F007F00490009000F000621
:100336000000001C003E006300510063003E001CEC
:100346000000007F007F00090019007F0066004062
:1003560000000066006F004D0059007B003300006E
:10036600000000030041007F007F00410003000001
:100376000000003F007F004000400040007F003F3B
:1003860000000003000F003D0070001D0007000183
:100396000000000F007F0030001C0030007F000FBF
:1003A600000000630077001C001C0077006300005B
:1003B600000100030047007C0078004700030001AD
:1003C6000000006700730059004D006700730000CD
:1003D600000000000000007F007F00410041000097
:1003E6000000000100030006000C00180030006049
:1003F6000000000000410041007F007F0000000077
:1004060000000000000400060003000600040000CF
:1004160000000000000000000000000000000000D6
:1004260000000000000100030006000400000000B8
:1004360000000068006C00540054003C0078004046
:1004460000000041007F003F006C0044007C003843
:1004560000000038007C00440044006C002C0000C2
:1004660000000038007C00440049003F007F004047
:1004760000000038007C00540054005C0058000066
:10048600000000000048007E007F0049000B0002CB
:1004960000000048007C00340034002C0068004452
:1004A60000000041007F007F00080004007C007807
:1004B600000000000044007D007D004000000000B8
:1004C6000000006000600004007D007D0000000068
:1004D60000000041007F007F00100078006C00449F
:1004E600000000000041007F007F00400000000087
:1004F6000000007C007C000C0078000C007C00787A
:1005060000000044007C007C00080004007C0078A9
:1005160000000038007C00440044007C00380000E5
:1005260000000004007C007800240024003C001831
:1005360000000018003C002400240078007C000025
:1005460000000044007C0078004C0004001C0018E9
:1005560000000048005C005C007400740024000089
:10056600000000000004003E007F0044002400005C
:100576000000003C007C00400040003C007C004045
:1005860000000004001C003C00600030001C000459
:100596000000001C007C0030001C0030007C001CA9
:1005A60000000044006C003C00100078006C004421
:1005B60000000044004C001C00700064001C000C8D
:1005C6000000004C00640074005C004C00640000F5
:1005D600000000080008003E0077004100410000CE
:1005E600000000000000007F007F00000000000007
:1005F6000000004100410077003E000800080000AE
:1006060000000002000100010003000200020001D8
:10061600000000600078004E0047005E0078006031
:100626000000001C003E002300410041004200275C
:100636000000003D007D00400041003D007C004080
:1011FE008F5F1212A27F78121144E4FF121144AFD6
:08120E005F12114412127F224D
:101216008F5F1212A27F781211447F40121144AFE1
:081226005F12114412127F2235
:100E10007FAE1211FE7FD51211FE7F801211FE7F70
:100E2000A81211FE7F3F1211FE7FD31211FEE4FFC4
:100E30001211FE7F401211FE7F8D1211FE7F1412DF
:100E400011FE7F201211FEE4FF1211FE7FA112118C
:100E5000FE7FC81211FE7FDA1211FE7F121211FE00
:100E60007F811211FE7FCF1211FE7FD91211FE7FFA
:100E7000F11211FE7FDB1211FE7F401211FE7FA4E2
:0E0E80001211FE7FA61211FE7FAF1211FE228C
:1010C200E4FF1211FE7F101211FE7F401211FE7F0B
:1010D200B01211FEE4F55BF55CE4FF121216055C3A
:0F10E200E55C7002055BC3E55B6480948440EAC3
:0110F10022DC
:020FE9008F5B1C
:100FEB00E4F55CE55B75F008A47C00255CFFEC3553
:100FFB00F0FEEF25E0FFEE33FE74262FF58274FE34
:10100B003EF583E493740193FF121216055CE55CC5
:05101B00C3940840CE63
:0110200022AD
:10000300E4FF1211FE7F101211FE7F401211FEE475
:0F001300FFFE0FBF00010EE4B507F7EEB404F3D4
:0100220022BB
:060C57008B588A59895AEE
:100C5D00E4F55BF55CF55DF55EFF1211FE7F10129C
:100C6D0011FE7F401211FE7FB01211FEE4F55BF50F
:100C7D005CAB58AA59A95A121243C3E55C9FEE64A6
:100C8D0080F8E55B6480984003020D44AB58AA5987
:100C9D00A95A855C82855B831209B1FF640D6009D9
:100CAD00EF640A6004EFB40B36E4F55DF55EE55EC6
:100CBD0025E0FFE55D33FE74262FF58274003EF5C9
:100CCD0083E493740193FF121216055EE55E7002C4
:100CDD00055DC39408E55D6480948040D1804DE44A
:100CED00F55DF55EAB58AA59A95A855C82855B8383
:100CFD001209B175F008A4255EFFE55D35F0FEEF34
:100D0D0025E0FFEE33FE74262FF58274FE3EF5834B
:100D1D00E493740193FF121216055EE55E700205F1
:100D2D005DC39408E55D6480948040B8055CE55C26
:100D3D007002055B020C7EE4F55BF55CAB58AA59BD
:100D4D00A95A121243EF7803C333CE33CED8F9FF2D
:100D5D00C3E49FFF74049EFEC3E55C9FEE6480F8C0
:100D6D00E55B648098500FE4FF121216055CE55C9C
:060D7D007002055B80C658
:010D8300224D
:0A0EFA008B608A6189628C638D644D
:050F0400E4F565F5664F
:100F0900AE63AF647C007D80120A008D67AE63AF6B
:100F1900647C007D80120A008E638F64D3E564943B
:100F290000E563648094804003436780AB60AA61F5
:100F3900A9620566E566AE657002056514F5828EDF
:060F490083E5671209DEDA
:100F4F00D3E5649400E5636480948050ADAE65AFE3
:010F5F00662B
:010F6000226E
:0112B100221A
:03000000020D846A
:0C0D8400787FE4F6D8FD758175020DCB78
:1008BB00E709F608DFFA8046E709F208DFFA803E1F
:1008CB0088828C83E709F0A3DFFA8032E309F6080C
:1008DB00DFFA8078E309F208DFFA807088828C8374
:1008EB00E309F0A3DFFA806489828A83E0A3F60828
:1008FB00DFFA805889828A83E0A3F208DFFA804C02
:10090B0080D280FA80C680D4806980F280338010D8
:10091B0080A680EA809A80A880DA80E280CA803341
:10092B0089828A83ECFAE493A3C8C582C8CCC583B9
:10093B00CCF0A3C8C582C8CCC583CCDFE9DEE78089
:10094B000D89828A83E493A3F608DFF9ECFAA9F008
:10095B00EDFB2289828A83ECFAE0A3C8C582C8CC5E
:10096B00C583CCF0A3C8C582C8CCC583CCDFEADE77
:10097B00E880DB89828A83E493A3F208DFF980CCD9
:10098B0088F0EF60010E4E60C388F0ED2402B404D2
:10099B000050B9F582EB2402B4040050AF23234579
:0609AB00822390090B738A
:1009B100BB010CE58229F582E5833AF583E02250FB
:1009C10006E92582F8E622BBFE06E92582F8E22245
:0D09D100E58229F582E5833AF583E493225F
:1009DE00F8BB010DE58229F582E5833AF583E8F04F
:1009EE00225006E92582C8F622BBFE05E92582C8FB
:0209FE00F222E3
:100A0000C2D5EC30E709B2D5E4C39DFDE49CFCEE11
:100A100030E715B2D5E4C39FFFE49EFE120A4FC330
:100A2000E49DFDE49CFC8003120A4F30D507C3E42B
:060A30009FFFE49EFE2280
:10124300E4FFFE120A36600C0FEF70010E09E9701D
:05125300F20A80EF2209
:100D9000020AA4E493A3F8E493A34003F68001F2CB
:100DA00008DFF48029E493A3F85407240CC8C33364
:100DB000C4540F4420C8834004F456800146F6DF33
:100DC000E4800B010204081020408090126CE47E45
:100DD000019360BCA3FF543F30E509541FFEE49328
:100DE000A360010ECF54C025E060A840B8E493A3EF
:100DF000FAE493A3F8E493A3C8C582C8CAC583CA1A
:100E0000F0A3C8C582C8CAC583CADFE9DEE780BED1
:011275000078
:100A3600BB010689828A83E0225002E722BBFE02BE
:090A4600E32289828A83E49322F1
:100A4F00BC000BBE0029EF8DF084FFADF022E4CC8B
:100A5F00F875F008EF2FFFEE33FEEC33FCEE9DEC54
:100A6F00984005FCEE9DFE0FD5F0E9E4CEFD22ED9A
:100A7F00F8F5F0EE8420D21CFEADF075F008EF2FE4
:100A8F00FFED33FD4007985006D5F0F222C398FDD5
:050A9F000FD5F0EA2272
:00000001FF
