:100646007C2020204D7964657669636573202020BF
:100656007C2020544350204950204D6F6465202053
:100666007C2020204279205A59205869616F202029
:100676007C2020202020323031372D3720202020AA
:10068600002B2B2B007C2020204D79646576696336
:1006960065732020207C2020544350204950204D53
:1006A6006F646520207C202052657365742057692D
:1006B60066692020200041542B5253540020436F7A
:1006C6006E6E656374696E672E2E2E0041542B4341
:1006D600495053544152543D22544350222C223106
:1006E60039322E3136382E322E33222C35303030F8
:1006F600007C20436F6E6E6563746564207C0041E8
:10070600542B4349504D4F44453D310041542B43F2
:10071600495053454E440057616974696E672E2EE1
:100726002E004368616E6E656C20313A204F4E0094
:100736004368616E6E656C20313A204F4646004133
:10074600542B43574D4F44453D310D0A001082014D
:1007560000064D514973647003C2003C0024646373
:100766003737633232302D346438332D31316537C3
:100776002D393064632D636436333963613930391A
:100786006138002437373236316262302D346432B4
:10079600652D313165372D613163382D3033613345
:1007A60031306230376262320028366563646337FF
:1007B6003431393964346234336437633031633405
:1007C6006336343031363262373161623530613703
:1007D6003763825E0001005976312F373732363162
:1007E6006262302D346432652D313165372D6131C9
:1007F60063382D3033613331306230376262322FE5
:100806007468696E67732F64633737633232302DCD
:10081600346438332D313165372D393064632D63B7
:1008260064363339636139303961382F636D642F2B
:100836003200305D005A76312F37373236316262F8
:10084600302D346432652D313165372D6131633891
:100856002D3033613331306230376262322F746843
:10086600696E67732F64633737633232302D3464B1
:1008760038332D313165372D393064632D63643655
:100886003339636139303961382F646174612F00FF
:030896000000005F
:06124300017201017300BD
:100A8200E4F552F5537A00795478547C00FD7BFFEB
:100A92007A087995FE7F021209697A0079567856AA
:100AA2007C007D007BFF7A0879977E007F02120925
:100AB2006975B5FF75B3FF75B60F7FE87E03121235
:100AC2002FD2B5C2B712120512127F120DE7121001
:100AD200997BFF7A067946120C2E7F887E131212BA
:100AE2002F1211BC7BFF7A067987120FF87F887E5E
:100AF2001312122F120DE71210997BFF7A06798BCF
:100B0200120C2E7BFF7A0679BC120FF87F0D12129F
:100B1200717F0A121271E4FF1212717F107E271286
:100B2200122F120F387F107E2712122F120DE7128A
:100B320010997BFF7A0679C3120C2EE4F54E7BFFE7
:100B42007A0679D2120FF87F0D1212717F0A1212F1
:100B520071E4FF1212717F107E2712122FE54EB43C
:100B62003805E4F54E80D4120DE71210997BFF7A16
:100B72000679F7120C2E7F887E1312122F7BFF7AD2
:100B8200077905120FF87F0D1212717F0A12127186
:100B9200E4FF1212717F887E1312122F120F38E4B3
:100BA200F54E7BFF7A077912120FF87F0D12127140
:100BB2007F0A121271E4FF1212717F107E27121245
:100BC2002FE54E64166006E4F54E020AE6E4F54EA1
:100BD200121205120DE71210997BFF7A07791D1286
:100BE2000C2E7F887E1312122FE54E64027037E5B9
:100BF2000864017023E5091392B7120DE7121099E8
:100C0200E509600B7BFF7A077928120C2E80097B9D
:100C1200FF7A077936120C2EE508700A7F107E27BC
:0B0C220012122F020AE6E4F54E80B724
:010C2D0022A4
:0412840075B60F220A
:10116800E4FFFEE4FDFC0DBD00010CED64134C70C2
:0C117800F50FBF00010EEF640A4E70E797
:011184002248
:10122F00AB07AA06EB1BAE0270011A4E6005121136
:04123F006880F122B0
:1011A100E5B120E6037F0322E5B120E5037F0222BA
:0B11B100E5B120E4037F01227F002253
:1010C90075B1FE7FF47E0112122F75B1FD7FF47E9A
:1010D9000112122F75B1FB7FF47E0112122F75B127
:0910E900F77FF47E0112122F22A0
:1010F20075B1F77FF47E0112122F75B1FB7FF47E7A
:101102000112122F75B1FD7FF47E0112122F75B1FB
:09111200FE7FF47E0112122F226F
:1012050075B1F07FF47E0112122F75B1FF7FF47E68
:051215000112122F225E
:100F860079011212841211A1EF14600E1460071475
:100F9600700A79038006790280027901E924FE60ED
:100FA6000C14600E240270DD1210C980D8121205CE
:090FB60080D31210F280CE80CC31
:010FBF00220F
:05127F00D290D2912283
:06127900C29000C29122A8
:09124D00D290D291C290C291220C
:09125600C291C290D291D2902203
:09125F00C290D291C291D29022FA
:09126800D290D291C291D29022E1
:10111B00E4FEEF20E704C2908002D290D29100004F
:10112B0000C291EF25E0FF0EBE08E7D290D29100EE
:07113B00A290E433FFC29112
:01114200228A
:10118500E4FFFED291309003430701EEC39407506C
:0B11950004EF25E0FFC2910EBE08E849
:0111A000222C
:03124900014E0053
:1011BC0090E600740AF090E6087401F053877F758E
:0911CC009850D2ACD28CD2AF22B3
:060FF8008B588A59895A4A
:100FFE00E4F55BAB58AA59A95A12121AC3E55B9FC6
:10100E00EE6480F87480985017AB58AA59A95A8587
:10101E005B8275830012098FFF121271055B80D3FC
:01102E00229F
:06102F008B688A69896AE2
:10103500E4F56BAB68AA69A96A12121AC3E56B9F3E
:10104500EE6480F87480985017AB68AA69A96A8520
:101055006B8275830012098FFF121271056B80D3A5
:011065002268
:100E6500121099E4FF1211D57F101211D57F40128F
:100E750011D57FB01211D5E4F56EE56EC3954E50D0
:100E8500477408256EF8E6FFC4540FF56CEF540F50
:100E9500F56DE56CC3940A500AE56C2430FF120F1A
:100EA500C08008E56C2457FF120FC0E56DC3940A96
:100EB500500AE56D2430FF120FC08008E56D2457F8
:0B0EC500FF120FC0056E80B2E4F54E76
:010ED00022FF
:100F3800121099E4FF1211D57F101211D57F4012BB
:100F480011D57FB01211D5E4F55AE55AC3954E5024
:100F5800297408255AF8E6FF640D6009EF640A60F1
:100F680004EFB40B077F20120FC0800A7408255ABB
:0D0F7800F8E6FF120FC0055A80D0E4F54ED8
:010F85002249
:10114300AB07AA067C017D001209DE8F993099FD59
:10115300C299AE02AF037C017D001209DE8D993086
:0511630099FDC2992274
:081271008F993099FDC299220A
:0300230002106662
:09106600C0E0C0D075D000C0004C
:10106F00309820C298E54EC3944650147408254E0C
:10107F00F8A699054E7407254EF8E6B40A058003C5
:03108F00754E009B
:07109200D000D0D0D0E03205
:1000260000000000000000000000000000000000CA
:10003600000000000000005F005F000000000000FC
:100046000000000000030007000000070003000096
:10005600000000100074001C0077001C001700044C
:1000660000000024002E002A007F002A003A00101B
:100076000000004C006A0076001A006A0056003341
:1000860000000030007A004F005D0037007A00481B
:10009600000000000004000700030000000000004C
:1000A600000000000000001C003E0063004100004C
:1000B6000000000000410063003E001C000000003C
:1000C60000000008002A003E001C003E002A00082E
:1000D600000000080008003E003E0008000800007E
:1000E600000000000000006000600000000000004A
:1000F60000000008000800080008000800080000CA
:100106000000000000000060006000000000000029
:100116000000006000300018000C0006000300011B
:100126000000001C003E00610043003E001C000071
:10013600000000000044007F007F00400000000037
:1001460000000046006700710059004F006600007D
:100156000000002200630049004D007F00320000CD
:1001660000000018001C0052007F007F00500000B5
:100176000000002F006F00450045007D003900009B
:100186000000003C007E004B004900790030000072
:100196000000000700430071007D000F000300000F
:1001A60000000036007F004D0059007F0036000039
:1001B60000000006004F00490069003F001E0000D5
:1001C600000000000000006600660000000000005D
:1001D600000000000000006600660000000000004D
:1001E600000000000008001C00360063004100000B
:1001F6000000001400140014001400140014000081
:1002060000000000004100630036001C00080000EA
:1002160000000002000700510059000F0006000010
:100226000000003E0041005D0055005D0051001ECB
:10023600000000400070001D0017001F00780060DD
:1002460000000041007F007F0049004F007E003023
:100256000000001C003E00630041004100420027F0
:1002660000000041007F007F00410063003E001C4B
:1002760000000041007F007F0049005D00410063EF
:1002860000000041007F007F0049001D00010003BF
:100296000000001C003E0063004100510072007720
:1002A6000000007F007F00080008007F007F00003C
:1002B600000000000041007F007F004100000000B8
:1002C60000000030007000410041007F003F000147
:1002D6000000007F007F0008001C007700630041DB
:1002E60000000041007F007F004100400060007078
:1002F6000000007F007E000C0018000C007E007FCE
:100306000000007F007E000C00180030007F007F98
:100316000000001C003E006300410063003E001C1C
:1003260000000041007F007F00490009000F000621
:100336000000001C003E006300510063003E001CEC
:100346000000007F007F00090019007F0066004062
:1003560000000066006F004D0059007B003300006E
:10036600000000030041007F007F00410003000001
:100376000000003F007F004000400040007F003F3B
:1003860000000003000F003D0070001D0007000183
:100396000000000F007F0030001C0030007F000FBF
:1003A600000000630077001C001C0077006300005B
:1003B600000100030047007C0078004700030001AD
:1003C6000000006700730059004D006700730000CD
:1003D600000000000000007F007F00410041000097
:1003E6000000000100030006000C00180030006049
:1003F6000000000000410041007F007F0000000077
:1004060000000000000400060003000600040000CF
:1004160000000000000000000000000000000000D6
:1004260000000000000100030006000400000000B8
:1004360000000068006C00540054003C0078004046
:1004460000000041007F003F006C0044007C003843
:1004560000000038007C00440044006C002C0000C2
:1004660000000038007C00440049003F007F004047
:1004760000000038007C00540054005C0058000066
:10048600000000000048007E007F0049000B0002CB
:1004960000000048007C00340034002C0068004452
:1004A60000000041007F007F00080004007C007807
:1004B600000000000044007D007D004000000000B8
:1004C6000000006000600004007D007D0000000068
:1004D60000000041007F007F00100078006C00449F
:1004E600000000000041007F007F00400000000087
:1004F6000000007C007C000C0078000C007C00787A
:1005060000000044007C007C00080004007C0078A9
:1005160000000038007C00440044007C00380000E5
:1005260000000004007C007800240024003C001831
:1005360000000018003C002400240078007C000025
:1005460000000044007C0078004C0004001C0018E9
:1005560000000048005C005C007400740024000089
:10056600000000000004003E007F0044002400005C
:100576000000003C007C00400040003C007C004045
:1005860000000004001C003C00600030001C000459
:100596000000001C007C0030001C0030007C001CA9
:1005A60000000044006C003C00100078006C004421
:1005B60000000044004C001C00700064001C000C8D
:1005C6000000004C00640074005C004C00640000F5
:1005D600000000080008003E0077004100410000CE
:1005E600000000000000007F007F00000000000007
:1005F6000000004100410077003E000800080000AE
:1006060000000002000100010003000200020001D8
:10061600000000600078004E0047005E0078006031
:100626000000001C003E002300410041004200275C
:100636000000003D007D00400041003D007C004080
:1011D5008F5F1212797F7812111BE4FF12111BAF7A
:0811E5005F12111B12125622C9
:1011ED008F5F1212797F7812111B7F4012111BAF86
:0811FD005F12111B12125622B1
:100DE7007FAE1211D57FD51211D57F801211D57F15
:100DF700A81211D57F3F1211D57FD31211D5E4FF69
:100E07001211D57F401211D57F8D1211D57F141283
:100E170011D57F201211D5E4FF1211D57FA1121130
:100E2700D57FC81211D57FDA1211D57F121211D5CD
:100E37007F811211D57FCF1211D57FD91211D57F9E
:100E4700F11211D57FDB1211D57F401211D57FA486
:0E0E57001211D57FA61211D57FAF1211D52230
:10109900E4FF1211D57F101211D57F401211D57FAF
:1010A900B01211D5E4F55BF55CE4FF1211ED055CB6
:0F10B900E55C7002055BC3E55B6480948440EAEC
:0110C8002205
:020FC0008F5B45
:100FC200E4F55CE55B75F008A47C00255CFFEC357C
:100FD200F0FEEF25E0FFEE33FE74262FF58274FE5D
:100FE2003EF583E493740193FF1211ED055CE55C19
:050FF200C3940840CE8D
:010FF70022D7
:10000300E4FF1211D57F101211D57F401211D5E4F0
:0F001300FFFE0FBF00010EE4B507F7EEB404F3D4
:0100220022BB
:060C2E008B588A59895A17
:100C3400E4F55BF55CF55DF55EFF1211D57F1012EE
:100C440011D57F401211D57FB01211D5E4F55BF5B3
:100C54005CAB58AA59A95A12121AC3E55C9FEE64F8
:100C640080F8E55B6480984003020D1BAB58AA59D9
:100C7400A95A855C82855B8312098FFF640D600924
:100C8400EF640A6004EFB40B36E4F55DF55EE55EEF
:100C940025E0FFE55D33FE74262FF58274003EF5F2
:100CA40083E493740193FF1211ED055EE55E700217
:100CB400055DC39408E55D6480948040D1804DE473
:100CC400F55DF55EAB58AA59A95A855C82855B83AC
:100CD40012098F75F008A4255EFFE55D35F0FEEF7F
:100CE40025E0FFEE33FE74262FF58274FE3EF58375
:100CF400E493740193FF1211ED055EE55E70020545
:100D04005DC39408E55D6480948040B8055CE55C4F
:100D14007002055B020C55E4F55BF55CAB58AA590F
:100D2400A95A12121AEF7803C333CE33CED8F9FF7F
:100D3400C3E49FFF74049EFEC3E55C9FEE6480F8E9
:100D4400E55B648098500FE4FF1211ED055CE55CEF
:060D54007002055B80C681
:010D5A002276
:0A0ED1008B608A6189628C638D6476
:050EDB00E4F565F56679
:100EE000AE63AF647C007D801209DE8D67AE63AFB8
:100EF000647C007D801209DE8E638F64D3E5649488
:100F000000E563648094804003436780AB60AA611E
:100F1000A9620566E566AE657002056514F5828E08
:060F200083E5671209BC25
:100F2600D3E5649400E5636480948050ADAE65AF0C
:010F36006654
:010F37002297
:011288002243
:03000000020D5B93
:0C0D5B00787FE4F6D8FD758175020DA2CA
:10089900E709F608DFFA8046E709F208DFFA803E41
:1008A90088828C83E709F0A3DFFA8032E309F6082E
:1008B900DFFA8078E309F208DFFA807088828C8396
:1008C900E309F0A3DFFA806489828A83E0A3F6084A
:1008D900DFFA805889828A83E0A3F208DFFA804C24
:1008E90080D280FA80C680D4806980F280338010FB
:1008F90080A680EA809A80A880DA80E280CA803364
:1009090089828A83ECFAE493A3C8C582C8CCC583DB
:10091900CCF0A3C8C582C8CCC583CCDFE9DEE780AB
:100929000D89828A83E493A3F608DFF9ECFAA9F02A
:10093900EDFB2289828A83ECFAE0A3C8C582C8CC80
:10094900C583CCF0A3C8C582C8CCC583CCDFEADE99
:10095900E880DB89828A83E493A3F208DFF980CCFB
:1009690088F0EF60010E4E60C388F0ED2402B404F4
:100979000050B9F582EB2402B4040050AF2323459B
:0609890082239008E973CF
:10098F00BB010CE58229F582E5833AF583E022501D
:10099F0006E92582F8E622BBFE06E92582F8E22267
:0D09AF00E58229F582E5833AF583E4932281
:1009BC00F8BB010DE58229F582E5833AF583E8F071
:1009CC00225006E92582C8F622BBFE05E92582C81D
:0209DC00F22205
:1009DE00C2D5EC30E709B2D5E4C39DFDE49CFCEE34
:1009EE0030E715B2D5E4C39FFFE49EFE120A2DC375
:1009FE00E49DFDE49CFC8003120A2D30D507C3E470
:060A0E009FFFE49EFE22A2
:10121A00E4FFFE120A14600C0FEF70010E09E97068
:05122A00F20A80EF2232
:100D6700020A82E493A3F8E493A34003F68001F216
:100D770008DFF48029E493A3F85407240CC8C3338D
:100D8700C4540F4420C8834004F456800146F6DF5C
:100D9700E4800B0102040810204080901243E47E97
:100DA700019360BCA3FF543F30E509541FFEE49351
:100DB700A360010ECF54C025E060A840B8E493A318
:100DC700FAE493A3F8E493A3C8C582C8CAC583CA43
:100DD700F0A3C8C582C8CAC583CADFE9DEE780BEFB
:01124C0000A1
:100A1400BB010689828A83E0225002E722BBFE02E0
:090A2400E32289828A83E4932213
:100A2D00BC000BBE0029EF8DF084FFADF022E4CCAD
:100A3D00F875F008EF2FFFEE33FEEC33FCEE9DEC76
:100A4D00984005FCEE9DFE0FD5F0E9E4CEFD22EDBC
:100A5D00F8F5F0EE8420D21CFEADF075F008EF2F06
:100A6D00FFED33FD4007985006D5F0F222C398FDF7
:050A7D000FD5F0EA2294
:00000001FF
