:1008DD007C2020204D796465766963657320202026
:1008ED007C2020554450202020204D6F6465202011
:1008FD007C2020204279205A59205869616F202090
:10090D007C2020202020323031372D372020202010
:10091D00002B2B2B007C2020204D7964657669639C
:10092D0065732020207C2020554450202020204D10
:10093D006F646520207C2020526573657420576993
:10094D0066692020200041542B5253540041542BF2
:10095D004349504D55583D310041542B4349505357
:10096D00544152543D302C22554450222C223139C1
:10097D00322E3136382E322E33222C343434352C5F
:10098D00343434352C32004368616E6E656C203121
:10099D003A204F4E004368616E6E656C20313A20EF
:0409AD004F4646006B
:060F0300016A01016B0010
:10064600E4F552F553F554F555F556F55775B5FFDE
:1006560075B3FF75B60F7FE87E03120EEFD2B5C2F3
:10066600B7120EC5120F3F120B0E120D597BFF7AF1
:100676000879DD1207B07F887E13120EEF120E7C0A
:100686007BFF7A09791E120CB87F887E13120EEF53
:10069600120B0E120D597BFF7A0979221207B07BD5
:1006A600FF7A097953120CB87F0D120F317F0A12A7
:1006B6000F31E4FF120F317F107E27120EEF120B5F
:1006C600F87F887E13120EEFE4F54E7BFF7A0979E8
:1006D6005A120CB87F0D120F317F0A120F31E4FF48
:1006E600120F317F887E13120EEF120BF87FE87E11
:1006F60003120EEF7BFF7A097966120CB87F0D1292
:100706000F317F0A120F31E4FF120F317FB87E0BD3
:10071600120EEF120BF87FE87E03120EEFE4F5548B
:10072600F555120E61EF6029B2B76357FF6356FFA6
:10073600E5574556600B7BFF7A0979941207B0801E
:10074600097BFF7A0979A21207B07FF47E01120EA7
:10075600EF0555E55570020554C39464E55464806D
:10076600948040BEE54EB40FB42407F8E61392B762
:10077600120B0E120D597407254EF8E624D0600BA5
:100786007BFF7A0979941207B080097BFF7A097991
:10079600A21207B07407254EF8E624D0F557E434C4
:0907A600FFF556E4F54E020723AD
:0107AF002227
:050F3F00D290D29122C6
:060F3900C29000C29122EB
:090F0D00D290D291C290C291224F
:090F1600C291C290D291D2902246
:090F1F00C290D291C291D290223D
:090F2800D290D291C291D2902224
:100DDB00E4FEEF20E704C2908002D290D291000093
:100DEB0000C291EF25E0FF0EBE08E7D290D2910032
:070DFB00A290E433FFC29156
:010E020022CD
:100E4500E4FFFED291309003430701EEC3940750AF
:0B0E550004EF25E0FFC2910EBE08E88C
:010E6000226F
:030F0900014E0096
:100E7C0090E600740AF090E6087401F053877F75D1
:090E8C009850D2ACD28CD2AF22F6
:060CB8008B588A59895A8D
:100CBE00E4F55BAB58AA59A95A120EDAC3E55B9F4D
:100CCE00EE6480F87480985017AB58AA59A95A85CB
:100CDE005B827583001209B1FF120F31055B80D361
:010CEE0022E3
:060CEF008B608A6189623E
:100CF500E4F563AB60AA61A962120EDAC3E5639FEE
:100D0500EE6480F87480985017AB60AA61A962857B
:100D150063827583001209B1FF120F31056380D319
:010D250022AB
:100B8C00120D59E4FF120E957F10120E957F401234
:100B9C000E957FB0120E95E4F566E566C3954E5042
:100BAC004774082566F8E6FFC4540FF564EF540F3C
:100BBC00F565E564C3940A500AE5642430FF120C11
:100BCC00808008E5642457FF120C80E565C3940A05
:100BDC00500AE5652430FF120C808008E565245727
:0B0BEC00FF120C80056680B2E4F54E9D
:010BF70022DB
:100BF800120D59E4FF120E957F10120E957F4012C8
:100C08000E957FB0120E95E4F55AE55AC3954E50ED
:100C1800297408255AF8E6FF640D6009EF640A6034
:100C280004EFB40B077F20120C80800A7408255A41
:0D0C3800F8E6FF120C80055A80D0E4F54E5E
:010C4500228C
:100E0300AB07AA067C017D001209DE8F993099FD9C
:100E1300C299AE02AF037C017D001209DE8D9930C9
:050E230099FDC29922B7
:080F31008F993099FDC299224D
:03002300020D26A5
:090D2600C0E0C0D075D000C0008F
:100D2F00309820C298E54EC3944650147408254E4F
:100D3F00F8A699054E7407254EF8E6B40A05800308
:030D4F00754E00DE
:070D5200D000D0D0D0E03248
:1000260000000000000000000000000000000000CA
:10003600000000000000005F005F000000000000FC
:100046000000000000030007000000070003000096
:10005600000000100074001C0077001C001700044C
:1000660000000024002E002A007F002A003A00101B
:100076000000004C006A0076001A006A0056003341
:1000860000000030007A004F005D0037007A00481B
:10009600000000000004000700030000000000004C
:1000A600000000000000001C003E0063004100004C
:1000B6000000000000410063003E001C000000003C
:1000C60000000008002A003E001C003E002A00082E
:1000D600000000080008003E003E0008000800007E
:1000E600000000000000006000600000000000004A
:1000F60000000008000800080008000800080000CA
:100106000000000000000060006000000000000029
:100116000000006000300018000C0006000300011B
:100126000000001C003E00610043003E001C000071
:10013600000000000044007F007F00400000000037
:1001460000000046006700710059004F006600007D
:100156000000002200630049004D007F00320000CD
:1001660000000018001C0052007F007F00500000B5
:100176000000002F006F00450045007D003900009B
:100186000000003C007E004B004900790030000072
:100196000000000700430071007D000F000300000F
:1001A60000000036007F004D0059007F0036000039
:1001B60000000006004F00490069003F001E0000D5
:1001C600000000000000006600660000000000005D
:1001D600000000000000006600660000000000004D
:1001E600000000000008001C00360063004100000B
:1001F6000000001400140014001400140014000081
:1002060000000000004100630036001C00080000EA
:1002160000000002000700510059000F0006000010
:100226000000003E0041005D0055005D0051001ECB
:10023600000000400070001D0017001F00780060DD
:1002460000000041007F007F0049004F007E003023
:100256000000001C003E00630041004100420027F0
:1002660000000041007F007F00410063003E001C4B
:1002760000000041007F007F0049005D00410063EF
:1002860000000041007F007F0049001D00010003BF
:100296000000001C003E0063004100510072007720
:1002A6000000007F007F00080008007F007F00003C
:1002B600000000000041007F007F004100000000B8
:1002C60000000030007000410041007F003F000147
:1002D6000000007F007F0008001C007700630041DB
:1002E60000000041007F007F004100400060007078
:1002F6000000007F007E000C0018000C007E007FCE
:100306000000007F007E000C00180030007F007F98
:100316000000001C003E006300410063003E001C1C
:1003260000000041007F007F00490009000F000621
:100336000000001C003E006300510063003E001CEC
:100346000000007F007F00090019007F0066004062
:1003560000000066006F004D0059007B003300006E
:10036600000000030041007F007F00410003000001
:100376000000003F007F004000400040007F003F3B
:1003860000000003000F003D0070001D0007000183
:100396000000000F007F0030001C0030007F000FBF
:1003A600000000630077001C001C0077006300005B
:1003B600000100030047007C0078004700030001AD
:1003C6000000006700730059004D006700730000CD
:1003D600000000000000007F007F00410041000097
:1003E6000000000100030006000C00180030006049
:1003F6000000000000410041007F007F0000000077
:1004060000000000000400060003000600040000CF
:1004160000000000000000000000000000000000D6
:1004260000000000000100030006000400000000B8
:1004360000000068006C00540054003C0078004046
:1004460000000041007F003F006C0044007C003843
:1004560000000038007C00440044006C002C0000C2
:1004660000000038007C00440049003F007F004047
:1004760000000038007C00540054005C0058000066
:10048600000000000048007E007F0049000B0002CB
:1004960000000048007C00340034002C0068004452
:1004A60000000041007F007F00080004007C007807
:1004B600000000000044007D007D004000000000B8
:1004C6000000006000600004007D007D0000000068
:1004D60000000041007F007F00100078006C00449F
:1004E600000000000041007F007F00400000000087
:1004F6000000007C007C000C0078000C007C00787A
:1005060000000044007C007C00080004007C0078A9
:1005160000000038007C00440044007C00380000E5
:1005260000000004007C007800240024003C001831
:1005360000000018003C002400240078007C000025
:1005460000000044007C0078004C0004001C0018E9
:1005560000000048005C005C007400740024000089
:10056600000000000004003E007F0044002400005C
:100576000000003C007C00400040003C007C004045
:1005860000000004001C003C00600030001C000459
:100596000000001C007C0030001C0030007C001CA9
:1005A60000000044006C003C00100078006C004421
:1005B60000000044004C001C00700064001C000C8D
:1005C6000000004C00640074005C004C00640000F5
:1005D600000000080008003E0077004100410000CE
:1005E600000000000000007F007F00000000000007
:1005F6000000004100410077003E000800080000AE
:1006060000000002000100010003000200020001D8
:10061600000000600078004E0047005E0078006031
:100626000000001C003E002300410041004200275C
:100636000000003D007D00400041003D007C004080
:100E95008F5F120F397F78120DDBE4FF120DDBAF88
:080EA5005F120DDB120F162293
:100EAD008F5F120F397F78120DDB7F40120DDBAF94
:080EBD005F120DDB120F16227B
:100B0E007FAE120E957FD5120E957F80120E957FB9
:100B1E00A8120E957F3F120E957FD3120E95E4FF0D
:100B2E00120E957F40120E957F8D120E957F141228
:100B3E000E957F20120E95E4FF120E957FA1120ED8
:100B4E00957FC8120E957FDA120E957F12120E95B2
:100B5E007F81120E957FCF120E957FD9120E957F43
:100B6E00F1120E957FDB120E957F40120E957FA42B
:0E0B7E00120E957FA6120E957FAF120E9522D5
:100D5900E4FF120E957F10120E957F40120E957FBB
:100D6900B0120E95E4F55BF55CE4FF120EAD055C7F
:0F0D7900E55C7002055BC3E55B6480948440EA2F
:010D88002248
:020C80008F5B88
:100C8200E4F55CE55B75F008A47C00255CFFEC35BF
:100C9200F0FEEF25E0FFEE33FE74262FF58274FEA0
:100CA2003EF583E493740193FF120EAD055CE55C9F
:050CB200C3940840CED0
:010CB700221A
:10000300E4FF120E957F10120E957F40120E95E4B9
:0F001300FFFE0FBF00010EE4B507F7EEB404F3D4
:0100220022BB
:0607B0008B588A59895A9A
:1007B600E4F55BF55CF55DF55EFF120E957F1012B4
:1007C6000E957F40120E957FB0120E95E4F55BF5FF
:1007D6005CAB58AA59A95A120EDAC3E55C9FEE64BF
:1007E60080F8E55B648098400302089DAB58AA59DF
:1007F600A95A855C82855B831209B1FF640D600985
:10080600EF640A6004EFB40B36E4F55DF55EE55E71
:1008160025E0FFE55D33FE74262FF58274003EF574
:1008260083E493740193FF120EAD055EE55E7002DC
:10083600055DC39408E55D6480948040D1804DE4F5
:10084600F55DF55EAB58AA59A95A855C82855B832E
:100856001209B175F008A4255EFFE55D35F0FEEFDF
:1008660025E0FFEE33FE74262FF58274FE3EF583F7
:10087600E493740193FF120EAD055EE55E7002050A
:100886005DC39408E55D6480948040B8055CE55CD2
:100896007002055B0207D7E4F55BF55CAB58AA5915
:1008A600A95A120EDAEF7803C333CE33CED8F9FF46
:1008B600C3E49FFF74049EFEC3E55C9FEE6480F86C
:1008C600E55B648098500FE4FF120EAD055CE55CB5
:0608D6007002055B80C604
:0108DC0022F9
:040F440075B60F224D
:100E2800E4FFFEE4FDFC0DBD00010CED64134C7005
:0C0E3800F50FBF00010EEF640A4E70E7DA
:010E4400228B
:100EEF00AB07AA06EB1BAE0270011A4E6005120E7D
:040EFF002880F12234
:100E6100E5B120E6037F0322E5B120E5037F0222FD
:0B0E7100E5B120E4037F01227F002296
:100D890075B1FE7FF47E01120EEF75B1FD7FF47E21
:100D990001120EEF75B1FB7FF47E01120EEF75B1F2
:090DA900F77FF47E01120EEF2227
:100DB20075B1F77FF47E01120EEF75B1FB7FF47E01
:100DC20001120EEF75B1FD7FF47E01120EEF75B1C7
:090DD200FE7FF47E01120EEF22F7
:100EC50075B1F07FF47E01120EEF75B1FF7FF47EF0
:050ED50001120EEF22E6
:100C46007901120F44120E61EF14600E146007143E
:100C5600700A79038006790280027901E924FE6030
:100C66000C14600E240270DD120D8980D8120EC598
:090C760080D3120DB280CE80CCB7
:010C7F002252
:03000000020A826F
:0C0A8200787FE4F6D8FD75816D020AC98A
:1009B100BB010CE58229F582E5833AF583E02250FB
:1009C10006E92582F8E622BBFE06E92582F8E22245
:0D09D100E58229F582E5833AF583E493225F
:1009DE00C2D5EC30E709B2D5E4C39DFDE49CFCEE34
:1009EE0030E715B2D5E4C39FFFE49EFE120A2DC375
:1009FE00E49DFDE49CFC8003120A2D30D507C3E470
:060A0E009FFFE49EFE22A2
:100EDA00E4FFFE120A14600C0FEF70010E09E970AC
:050EEA00F20A80EF2276
:100A8E00020646E493A3F8E493A34003F68001F232
:100A9E0008DFF48029E493A3F85407240CC8C33369
:100AAE00C4540F4420C8834004F456800146F6DF38
:100ABE00E4800B0102040810204080900F03E47EB6
:100ACE00019360BCA3FF543F30E509541FFEE4932D
:100ADE00A360010ECF54C025E060A840B8E493A3F4
:100AEE00FAE493A3F8E493A3C8C582C8CAC583CA1F
:100AFE00F0A3C8C582C8CAC583CADFE9DEE780BED7
:010F0C0000E4
:100A1400BB010689828A83E0225002E722BBFE02E0
:090A2400E32289828A83E4932213
:100A2D00BC000BBE0029EF8DF084FFADF022E4CCAD
:100A3D00F875F008EF2FFFEE33FEEC33FCEE9DEC76
:100A4D00984005FCEE9DFE0FD5F0E9E4CEFD22EDBC
:100A5D00F8F5F0EE8420D21CFEADF075F008EF2F06
:100A6D00FFED33FD4007985006D5F0F222C398FDF7
:050A7D000FD5F0EA2294
:00000001FF
